{"abi":[{"type":"constructor","inputs":[],"stateMutability":"nonpayable"},{"type":"function","name":"getMyLuckyNumber","inputs":[],"outputs":[{"name":"","type":"uint256","internalType":"uint256"}],"stateMutability":"view"},{"type":"function","name":"ownerToLuckyNumber","inputs":[{"name":"","type":"address","internalType":"address"}],"outputs":[{"name":"","type":"uint256","internalType":"uint256"}],"stateMutability":"view"},{"type":"function","name":"saveLuckyNumber","inputs":[{"name":"_luckyNumber","type":"uint256","internalType":"uint256"}],"outputs":[],"stateMutability":"nonpayable"},{"type":"function","name":"sum","inputs":[{"name":"a","type":"uint256","internalType":"uint256"},{"name":"b","type":"uint256","internalType":"uint256"}],"outputs":[{"name":"","type":"uint256","internalType":"uint256"}],"stateMutability":"pure"},{"type":"function","name":"updateLuckyNumber","inputs":[{"name":"_luckyNumber","type":"uint256","internalType":"uint256"},{"name":"_newLuckyNumber","type":"uint256","internalType":"uint256"}],"outputs":[],"stateMutability":"nonpayable"}],"bytecode":{"object":"0x608060405234801561001057600080fd5b5060408051808201909152601881527f4465706c6f796564204772656574657220627920272573270000000000000000602082015261004f9033610054565b610138565b61009d828260405160240161006a9291906100d8565b60408051601f198184030181529190526020810180516001600160e01b0390811663319af33360e01b179091526100a116565b5050565b6100b4816100b760201b6102291760201c565b50565b60006a636f6e736f6c652e6c6f679050600080835160208501845afa505050565b604081526000835180604084015260005b8181101561010657602081870181015160608684010152016100e9565b50600060608285018101919091526001600160a01b03949094166020840152601f01601f191690910190910192915050565b61032c806101476000396000f3fe608060405234801561001057600080fd5b50600436106100575760003560e01c80632f60c9291461005c57806370d2cd111461007157806387ddd15114610094578063cad0899b146100b4578063e903e105146100c7575b600080fd5b61006f61006a366004610254565b6100da565b005b336000908152602081905260409020545b60405190815260200160405180910390f35b6100826100a2366004610276565b60006020819052908152604090205481565b6100826100c2366004610254565b610153565b61006f6100d53660046102a6565b610168565b336000908152602081905260409020548290811461013f5760405162461bcd60e51b815260206004820152601f60248201527f4e6f7420796f75722070726576696f7573206c75636b79206e756d6265722e0060448201526064015b60405180910390fd5b503360009081526020819052604090205550565b600061015f82846102bf565b90505b92915050565b33600090815260208190526040902054156101c55760405162461bcd60e51b815260206004820181905260248201527f596f7520616c726561647920686176652061206c75636b79206e756d6265722e6044820152606401610136565b80806000036102165760405162461bcd60e51b815260206004820152601d60248201527f4c75636b79206e756d6265722073686f756c64206e6f7420626520302e0000006044820152606401610136565b5033600090815260208190526040902055565b60006a636f6e736f6c652e6c6f679050600080835160208501845afa505050565b6102526102e0565b565b6000806040838503121561026757600080fd5b50508035926020909101359150565b60006020828403121561028857600080fd5b81356001600160a01b038116811461029f57600080fd5b9392505050565b6000602082840312156102b857600080fd5b5035919050565b8082018082111561016257634e487b7160e01b600052601160045260246000fd5b634e487b7160e01b600052605160045260246000fdfea2646970667358221220e4b0748dec54a4bc4e091179493135cef6576dddf4dfe36ad17e99f7839818b264736f6c63430008170033","linkReferences":{}},"methodIdentifiers":{"getMyLuckyNumber()":"70d2cd11","ownerToLuckyNumber(address)":"87ddd151","saveLuckyNumber(uint256)":"e903e105","sum(uint256,uint256)":"cad0899b","updateLuckyNumber(uint256,uint256)":"2f60c929"},"id":0}